{
  "_format": "hh-sol-artifact-1",
  "contractName": "Gaming",
  "sourceName": "contracts/Gaming.sol",
  "abi": [
    {
      "inputs": [],
      "stateMutability": "payable",
      "type": "constructor"
    },
    {
      "anonymous": false,
      "inputs": [
        {
          "indexed": false,
          "internalType": "address",
          "name": "funder",
          "type": "address"
        },
        {
          "indexed": false,
          "internalType": "uint256",
          "name": "amount",
          "type": "uint256"
        }
      ],
      "name": "GameFunded",
      "type": "event"
    },
    {
      "anonymous": false,
      "inputs": [
        {
          "indexed": false,
          "internalType": "address",
          "name": "player",
          "type": "address"
        },
        {
          "indexed": false,
          "internalType": "uint256",
          "name": "amount",
          "type": "uint256"
        },
        {
          "indexed": false,
          "internalType": "uint256",
          "name": "mysteryNumber",
          "type": "uint256"
        },
        {
          "indexed": false,
          "internalType": "uint256",
          "name": "displayedNumber",
          "type": "uint256"
        }
      ],
      "name": "PlayerLost",
      "type": "event"
    },
    {
      "anonymous": false,
      "inputs": [
        {
          "indexed": false,
          "internalType": "address",
          "name": "player",
          "type": "address"
        },
        {
          "indexed": false,
          "internalType": "uint256",
          "name": "amount",
          "type": "uint256"
        },
        {
          "indexed": false,
          "internalType": "uint256",
          "name": "mysteryNumber",
          "type": "uint256"
        },
        {
          "indexed": false,
          "internalType": "uint256",
          "name": "displayedNumber",
          "type": "uint256"
        }
      ],
      "name": "PlayerWon",
      "type": "event"
    },
    {
      "anonymous": false,
      "inputs": [
        {
          "indexed": false,
          "internalType": "uint256",
          "name": "wager",
          "type": "uint256"
        },
        {
          "indexed": false,
          "internalType": "uint256",
          "name": "playerNumber",
          "type": "uint256"
        },
        {
          "indexed": false,
          "internalType": "uint256",
          "name": "mysteryNumber",
          "type": "uint256"
        },
        {
          "indexed": false,
          "internalType": "bool",
          "name": "guess",
          "type": "bool"
        },
        {
          "indexed": false,
          "internalType": "string",
          "name": "result",
          "type": "string"
        }
      ],
      "name": "RoundComplete",
      "type": "event"
    },
    {
      "inputs": [
        {
          "internalType": "uint256",
          "name": "mysteryNumber",
          "type": "uint256"
        },
        {
          "internalType": "uint256",
          "name": "myNumber",
          "type": "uint256"
        },
        {
          "internalType": "bool",
          "name": "guess",
          "type": "bool"
        }
      ],
      "name": "determineWinner",
      "outputs": [
        {
          "internalType": "bool",
          "name": "",
          "type": "bool"
        }
      ],
      "stateMutability": "pure",
      "type": "function"
    },
    {
      "inputs": [],
      "name": "fundGame",
      "outputs": [],
      "stateMutability": "payable",
      "type": "function"
    },
    {
      "inputs": [],
      "name": "getLosses",
      "outputs": [
        {
          "internalType": "uint256",
          "name": "",
          "type": "uint256"
        }
      ],
      "stateMutability": "payable",
      "type": "function"
    },
    {
      "inputs": [],
      "name": "getWins",
      "outputs": [
        {
          "internalType": "uint256",
          "name": "",
          "type": "uint256"
        }
      ],
      "stateMutability": "payable",
      "type": "function"
    },
    {
      "inputs": [],
      "name": "losses",
      "outputs": [
        {
          "internalType": "uint256",
          "name": "",
          "type": "uint256"
        }
      ],
      "stateMutability": "view",
      "type": "function"
    },
    {
      "inputs": [],
      "name": "owner",
      "outputs": [
        {
          "internalType": "address payable",
          "name": "",
          "type": "address"
        }
      ],
      "stateMutability": "view",
      "type": "function"
    },
    {
      "inputs": [
        {
          "internalType": "address",
          "name": "",
          "type": "address"
        }
      ],
      "name": "players",
      "outputs": [
        {
          "internalType": "uint256",
          "name": "wins",
          "type": "uint256"
        },
        {
          "internalType": "uint256",
          "name": "losses",
          "type": "uint256"
        }
      ],
      "stateMutability": "view",
      "type": "function"
    },
    {
      "inputs": [
        {
          "internalType": "uint256",
          "name": "display",
          "type": "uint256"
        },
        {
          "internalType": "bool",
          "name": "guess",
          "type": "bool"
        }
      ],
      "name": "winOrLose",
      "outputs": [
        {
          "internalType": "bool",
          "name": "",
          "type": "bool"
        },
        {
          "internalType": "uint256",
          "name": "",
          "type": "uint256"
        }
      ],
      "stateMutability": "payable",
      "type": "function"
    },
    {
      "inputs": [],
      "name": "wins",
      "outputs": [
        {
          "internalType": "uint256",
          "name": "",
          "type": "uint256"
        }
      ],
      "stateMutability": "view",
      "type": "function"
    },
    {
      "inputs": [],
      "name": "withdrawFunds",
      "outputs": [],
      "stateMutability": "nonpayable",
      "type": "function"
    }
  ],
  "bytecode": "0x6080604052336000806101000a81548173ffffffffffffffffffffffffffffffffffffffff021916908373ffffffffffffffffffffffffffffffffffffffff1602179055506001600060146101000a81548160ff02191690831515021790555060006001819055506000600281905550610e308061007e6000396000f3fe6080604052600436106100915760003560e01c80638da5cb5b116100595780638da5cb5b1461015e578063c3aabf2d14610189578063e169bf6c146101a7578063e2eb41ff146101b1578063fc541ef3146101ef57610091565b8063171273a51461009657806324600fc3146100d357806324de908d146100ea57806335e1983e146101155780636f22d6a514610133575b600080fd5b3480156100a257600080fd5b506100bd60048036038101906100b891906107c6565b610220565b6040516100ca9190610828565b60405180910390f35b3480156100df57600080fd5b506100e861028d565b005b3480156100f657600080fd5b506100ff610364565b60405161010c9190610852565b60405180910390f35b61011d61036a565b60405161012a9190610852565b60405180910390f35b34801561013f57600080fd5b50610148610374565b6040516101559190610852565b60405180910390f35b34801561016a57600080fd5b5061017361037a565b60405161018091906108ae565b60405180910390f35b61019161039e565b60405161019e9190610852565b60405180910390f35b6101af6103a8565b005b3480156101bd57600080fd5b506101d860048036038101906101d39190610907565b610471565b6040516101e6929190610934565b60405180910390f35b6102096004803603810190610204919061095d565b610495565b60405161021792919061099d565b60405180910390f35b60006001151582151503610255578383111561023f5760019050610286565b838310156102505760009050610286565b610285565b600015158215150361028457828411156102725760019050610286565b828410156102835760009050610286565b5b5b5b9392505050565b60008054906101000a900473ffffffffffffffffffffffffffffffffffffffff1673ffffffffffffffffffffffffffffffffffffffff163373ffffffffffffffffffffffffffffffffffffffff161461031b576040517f08c379a000000000000000000000000000000000000000000000000000000000815260040161031290610a49565b60405180910390fd5b3373ffffffffffffffffffffffffffffffffffffffff166108fc479081150290604051600060405180830381858888f19350505050158015610361573d6000803e3d6000fd5b50565b60015481565b6000600254905090565b60025481565b60008054906101000a900473ffffffffffffffffffffffffffffffffffffffff1681565b6000600154905090565b60008054906101000a900473ffffffffffffffffffffffffffffffffffffffff1673ffffffffffffffffffffffffffffffffffffffff163373ffffffffffffffffffffffffffffffffffffffff1614610436576040517f08c379a000000000000000000000000000000000000000000000000000000000815260040161042d90610a49565b60405180910390fd5b7f5c963fd7fde519af29d56159e6e3e18db4e5d3e4716c39c87958cf9e4862ed583334604051610467929190610a78565b60405180910390a1565b60036020528060005260406000206000915090508060000154908060010154905082565b60008060011515600060149054906101000a900460ff161515146104ee576040517f08c379a00000000000000000000000000000000000000000000000000000000081526004016104e590610aed565b60405180910390fd5b343373ffffffffffffffffffffffffffffffffffffffff163111610547576040517f08c379a000000000000000000000000000000000000000000000000000000000815260040161053e90610b59565b60405180910390fd5b600061055161071e565b90506000610560828787610220565b90506000600360003373ffffffffffffffffffffffffffffffffffffffff1673ffffffffffffffffffffffffffffffffffffffff168152602001908152602001600020905060011515821515036106855760018160000160008282546105c69190610ba8565b9250508190555060018060008282546105df9190610ba8565b925050819055503373ffffffffffffffffffffffffffffffffffffffff166108fc60023461060d9190610bdc565b9081150290604051600060405180830381858888f19350505050158015610638573d6000803e3d6000fd5b507f05bb7924248cee9db500cb69e17c14e314413ba322759d375d60e1cbbff780903488858960405161066e9493929190610c6a565b60405180910390a160018394509450505050610717565b60001515821515036107135760018160010160008282546106a69190610ba8565b925050819055506001600260008282546106c09190610ba8565b925050819055507f05bb7924248cee9db500cb69e17c14e314413ba322759d375d60e1cbbff78090348885896040516106fc9493929190610d0e565b60405180910390a160008394509450505050610717565b5050505b9250929050565b6000806001600a6001436107329190610d66565b4060001c6107409190610dc9565b61074a9190610ba8565b90508091505090565b600080fd5b6000819050919050565b61076b81610758565b811461077657600080fd5b50565b60008135905061078881610762565b92915050565b60008115159050919050565b6107a38161078e565b81146107ae57600080fd5b50565b6000813590506107c08161079a565b92915050565b6000806000606084860312156107df576107de610753565b5b60006107ed86828701610779565b93505060206107fe86828701610779565b925050604061080f868287016107b1565b9150509250925092565b6108228161078e565b82525050565b600060208201905061083d6000830184610819565b92915050565b61084c81610758565b82525050565b60006020820190506108676000830184610843565b92915050565b600073ffffffffffffffffffffffffffffffffffffffff82169050919050565b60006108988261086d565b9050919050565b6108a88161088d565b82525050565b60006020820190506108c3600083018461089f565b92915050565b60006108d48261086d565b9050919050565b6108e4816108c9565b81146108ef57600080fd5b50565b600081359050610901816108db565b92915050565b60006020828403121561091d5761091c610753565b5b600061092b848285016108f2565b91505092915050565b60006040820190506109496000830185610843565b6109566020830184610843565b9392505050565b6000806040838503121561097457610973610753565b5b600061098285828601610779565b9250506020610993858286016107b1565b9150509250929050565b60006040820190506109b26000830185610819565b6109bf6020830184610843565b9392505050565b600082825260208201905092915050565b7f4f6e6c79206f776e65722063616e2063616c6c20746869732066756e6374696f60008201527f6e00000000000000000000000000000000000000000000000000000000000000602082015250565b6000610a336021836109c6565b9150610a3e826109d7565b604082019050919050565b60006020820190508181036000830152610a6281610a26565b9050919050565b610a72816108c9565b82525050565b6000604082019050610a8d6000830185610a69565b610a9a6020830184610843565b9392505050565b7f5468652067616d65206973206e6f74206f6e6c696e6500000000000000000000600082015250565b6000610ad76016836109c6565b9150610ae282610aa1565b602082019050919050565b60006020820190508181036000830152610b0681610aca565b9050919050565b7f496e73756666696369656e742066756e64730000000000000000000000000000600082015250565b6000610b436012836109c6565b9150610b4e82610b0d565b602082019050919050565b60006020820190508181036000830152610b7281610b36565b9050919050565b7f4e487b7100000000000000000000000000000000000000000000000000000000600052601160045260246000fd5b6000610bb382610758565b9150610bbe83610758565b9250828201905080821115610bd657610bd5610b79565b5b92915050565b6000610be782610758565b9150610bf283610758565b9250828202610c0081610758565b91508282048414831517610c1757610c16610b79565b5b5092915050565b7f776f6e0000000000000000000000000000000000000000000000000000000000600082015250565b6000610c546003836109c6565b9150610c5f82610c1e565b602082019050919050565b600060a082019050610c7f6000830187610843565b610c8c6020830186610843565b610c996040830185610843565b610ca66060830184610819565b8181036080830152610cb781610c47565b905095945050505050565b7f6c6f737400000000000000000000000000000000000000000000000000000000600082015250565b6000610cf86004836109c6565b9150610d0382610cc2565b602082019050919050565b600060a082019050610d236000830187610843565b610d306020830186610843565b610d3d6040830185610843565b610d4a6060830184610819565b8181036080830152610d5b81610ceb565b905095945050505050565b6000610d7182610758565b9150610d7c83610758565b9250828203905081811115610d9457610d93610b79565b5b92915050565b7f4e487b7100000000000000000000000000000000000000000000000000000000600052601260045260246000fd5b6000610dd482610758565b9150610ddf83610758565b925082610def57610dee610d9a565b5b82820690509291505056fea26469706673582212203e9bae676832560f2a99e8192e1a578e0a3545fae1b5b09ef774fdb42b652b7764736f6c63430008120033",
  "linkReferences": {},
  "deployedLinkReferences": {}
}